{
  "_format": "hh-sol-artifact-1",
  "contractName": "ActivityNFT",
  "sourceName": "contracts/ActivityNft.sol",
  "abi": [
    {
      "inputs": [
        {
          "internalType": "address",
          "name": "owner",
          "type": "address"
        },
        {
          "internalType": "string",
          "name": "activityRight",
          "type": "string"
        }
      ],
      "stateMutability": "nonpayable",
      "type": "constructor"
    },
    {
      "inputs": [
        {
          "internalType": "address",
          "name": "sender",
          "type": "address"
        },
        {
          "internalType": "uint256",
          "name": "tokenId",
          "type": "uint256"
        },
        {
          "internalType": "address",
          "name": "owner",
          "type": "address"
        }
      ],
      "name": "ERC721IncorrectOwner",
      "type": "error"
    },
    {
      "inputs": [
        {
          "internalType": "address",
          "name": "operator",
          "type": "address"
        },
        {
          "internalType": "uint256",
          "name": "tokenId",
          "type": "uint256"
        }
      ],
      "name": "ERC721InsufficientApproval",
      "type": "error"
    },
    {
      "inputs": [
        {
          "internalType": "address",
          "name": "approver",
          "type": "address"
        }
      ],
      "name": "ERC721InvalidApprover",
      "type": "error"
    },
    {
      "inputs": [
        {
          "internalType": "address",
          "name": "operator",
          "type": "address"
        }
      ],
      "name": "ERC721InvalidOperator",
      "type": "error"
    },
    {
      "inputs": [
        {
          "internalType": "address",
          "name": "owner",
          "type": "address"
        }
      ],
      "name": "ERC721InvalidOwner",
      "type": "error"
    },
    {
      "inputs": [
        {
          "internalType": "address",
          "name": "receiver",
          "type": "address"
        }
      ],
      "name": "ERC721InvalidReceiver",
      "type": "error"
    },
    {
      "inputs": [
        {
          "internalType": "address",
          "name": "sender",
          "type": "address"
        }
      ],
      "name": "ERC721InvalidSender",
      "type": "error"
    },
    {
      "inputs": [
        {
          "internalType": "uint256",
          "name": "tokenId",
          "type": "uint256"
        }
      ],
      "name": "ERC721NonexistentToken",
      "type": "error"
    },
    {
      "anonymous": false,
      "inputs": [
        {
          "indexed": false,
          "internalType": "uint256",
          "name": "tokenId",
          "type": "uint256"
        },
        {
          "indexed": false,
          "internalType": "string",
          "name": "activityRight",
          "type": "string"
        }
      ],
      "name": "ActivityRightCreated",
      "type": "event"
    },
    {
      "anonymous": false,
      "inputs": [
        {
          "indexed": true,
          "internalType": "address",
          "name": "owner",
          "type": "address"
        },
        {
          "indexed": true,
          "internalType": "address",
          "name": "approved",
          "type": "address"
        },
        {
          "indexed": true,
          "internalType": "uint256",
          "name": "tokenId",
          "type": "uint256"
        }
      ],
      "name": "Approval",
      "type": "event"
    },
    {
      "anonymous": false,
      "inputs": [
        {
          "indexed": true,
          "internalType": "address",
          "name": "owner",
          "type": "address"
        },
        {
          "indexed": true,
          "internalType": "address",
          "name": "operator",
          "type": "address"
        },
        {
          "indexed": false,
          "internalType": "bool",
          "name": "approved",
          "type": "bool"
        }
      ],
      "name": "ApprovalForAll",
      "type": "event"
    },
    {
      "anonymous": false,
      "inputs": [
        {
          "indexed": true,
          "internalType": "address",
          "name": "from",
          "type": "address"
        },
        {
          "indexed": true,
          "internalType": "address",
          "name": "to",
          "type": "address"
        },
        {
          "indexed": true,
          "internalType": "uint256",
          "name": "tokenId",
          "type": "uint256"
        }
      ],
      "name": "Transfer",
      "type": "event"
    },
    {
      "inputs": [
        {
          "internalType": "address",
          "name": "to",
          "type": "address"
        },
        {
          "internalType": "uint256",
          "name": "tokenId",
          "type": "uint256"
        }
      ],
      "name": "approve",
      "outputs": [],
      "stateMutability": "nonpayable",
      "type": "function"
    },
    {
      "inputs": [
        {
          "internalType": "address",
          "name": "owner",
          "type": "address"
        }
      ],
      "name": "balanceOf",
      "outputs": [
        {
          "internalType": "uint256",
          "name": "",
          "type": "uint256"
        }
      ],
      "stateMutability": "view",
      "type": "function"
    },
    {
      "inputs": [],
      "name": "getActivityRight",
      "outputs": [
        {
          "internalType": "string",
          "name": "",
          "type": "string"
        }
      ],
      "stateMutability": "view",
      "type": "function"
    },
    {
      "inputs": [
        {
          "internalType": "uint256",
          "name": "tokenId",
          "type": "uint256"
        }
      ],
      "name": "getApproved",
      "outputs": [
        {
          "internalType": "address",
          "name": "",
          "type": "address"
        }
      ],
      "stateMutability": "view",
      "type": "function"
    },
    {
      "inputs": [
        {
          "internalType": "address",
          "name": "owner",
          "type": "address"
        },
        {
          "internalType": "address",
          "name": "operator",
          "type": "address"
        }
      ],
      "name": "isApprovedForAll",
      "outputs": [
        {
          "internalType": "bool",
          "name": "",
          "type": "bool"
        }
      ],
      "stateMutability": "view",
      "type": "function"
    },
    {
      "inputs": [],
      "name": "name",
      "outputs": [
        {
          "internalType": "string",
          "name": "",
          "type": "string"
        }
      ],
      "stateMutability": "view",
      "type": "function"
    },
    {
      "inputs": [
        {
          "internalType": "uint256",
          "name": "tokenId",
          "type": "uint256"
        }
      ],
      "name": "ownerOf",
      "outputs": [
        {
          "internalType": "address",
          "name": "",
          "type": "address"
        }
      ],
      "stateMutability": "view",
      "type": "function"
    },
    {
      "inputs": [
        {
          "internalType": "address",
          "name": "from",
          "type": "address"
        },
        {
          "internalType": "address",
          "name": "to",
          "type": "address"
        },
        {
          "internalType": "uint256",
          "name": "tokenId",
          "type": "uint256"
        }
      ],
      "name": "safeTransferFrom",
      "outputs": [],
      "stateMutability": "nonpayable",
      "type": "function"
    },
    {
      "inputs": [
        {
          "internalType": "address",
          "name": "from",
          "type": "address"
        },
        {
          "internalType": "address",
          "name": "to",
          "type": "address"
        },
        {
          "internalType": "uint256",
          "name": "tokenId",
          "type": "uint256"
        },
        {
          "internalType": "bytes",
          "name": "data",
          "type": "bytes"
        }
      ],
      "name": "safeTransferFrom",
      "outputs": [],
      "stateMutability": "nonpayable",
      "type": "function"
    },
    {
      "inputs": [
        {
          "internalType": "address",
          "name": "operator",
          "type": "address"
        },
        {
          "internalType": "bool",
          "name": "approved",
          "type": "bool"
        }
      ],
      "name": "setApprovalForAll",
      "outputs": [],
      "stateMutability": "nonpayable",
      "type": "function"
    },
    {
      "inputs": [
        {
          "internalType": "bytes4",
          "name": "interfaceId",
          "type": "bytes4"
        }
      ],
      "name": "supportsInterface",
      "outputs": [
        {
          "internalType": "bool",
          "name": "",
          "type": "bool"
        }
      ],
      "stateMutability": "view",
      "type": "function"
    },
    {
      "inputs": [],
      "name": "symbol",
      "outputs": [
        {
          "internalType": "string",
          "name": "",
          "type": "string"
        }
      ],
      "stateMutability": "view",
      "type": "function"
    },
    {
      "inputs": [
        {
          "internalType": "uint256",
          "name": "tokenId",
          "type": "uint256"
        }
      ],
      "name": "tokenURI",
      "outputs": [
        {
          "internalType": "string",
          "name": "",
          "type": "string"
        }
      ],
      "stateMutability": "view",
      "type": "function"
    },
    {
      "inputs": [
        {
          "internalType": "address",
          "name": "from",
          "type": "address"
        },
        {
          "internalType": "address",
          "name": "to",
          "type": "address"
        },
        {
          "internalType": "uint256",
          "name": "tokenId",
          "type": "uint256"
        }
      ],
      "name": "transferFrom",
      "outputs": [],
      "stateMutability": "nonpayable",
      "type": "function"
    }
  ],
  "bytecode": "0x608060405234801562000010575f80fd5b50604051620016b9380380620016b983398101604081905262000033916200051f565b6040518060400160405280600b81526020016a1058dd1a5d9a5d1e53919560aa1b815250604051806040016040528060038152602001621050d560ea1b815250815f90816200008391906200067d565b5060016200009282826200067d565b505050620000a88260016200012360201b60201c565b60015f5260066020527f3e5fec24aa4dc4e5aee2e025e51e1392c72a2500577559fae9665c6d52bd6a31620000de82826200067d565b507f30e6441d0c4c928fa91edf43f90db4abc8d73aa103dd37305dd58c3e6263c1406001826040516200011392919062000749565b60405180910390a1505062000784565b6001600160a01b0382166200015257604051633250574960e11b81525f60048201526024015b60405180910390fd5b5f6200016083838362000193565b90506001600160a01b038116156200018e576040516339e3563760e11b81525f600482015260240162000149565b505050565b5f828152600260205260408120546001600160a01b0390811690831615620001c257620001c28184866200028c565b6001600160a01b03811615620001ff57620001e05f858180620002f6565b6001600160a01b0381165f90815260036020526040902080545f190190555b6001600160a01b038516156200022e576001600160a01b0385165f908152600360205260409020805460010190555b5f8481526002602052604080822080546001600160a01b0319166001600160a01b0389811691821790925591518793918516917fddf252ad1be2c89b69c2b068fc378daa952ba7f163c4a11628f55a4df523b3ef91a4949350505050565b6200029983838362000421565b6200018e576001600160a01b038316620002ca57604051637e27328960e01b81526004810182905260240162000149565b60405163177e802f60e01b81526001600160a01b03831660048201526024810182905260440162000149565b80806200030b57506001600160a01b03821615155b15620003f2575f6200031d84620004a7565b90506001600160a01b038316158015906200034a5750826001600160a01b0316816001600160a01b031614155b80156200037c57506001600160a01b038082165f9081526005602090815260408083209387168352929052205460ff16155b15620003a75760405163a9fbf51f60e01b81526001600160a01b038416600482015260240162000149565b8115620003f05783856001600160a01b0316826001600160a01b03167f8c5be1e5ebec7d5bd14f71427d1e84f3dd0314c0f7b2291e5b200ac8c7c3b92560405160405180910390a45b505b50505f90815260046020526040902080546001600160a01b0319166001600160a01b0392909216919091179055565b5f6001600160a01b038316158015906200049f5750826001600160a01b0316846001600160a01b031614806200047b57506001600160a01b038085165f9081526005602090815260408083209387168352929052205460ff165b806200049f57505f828152600460205260409020546001600160a01b038481169116145b949350505050565b5f818152600260205260408120546001600160a01b031680620004e157604051637e27328960e01b81526004810184905260240162000149565b92915050565b634e487b7160e01b5f52604160045260245ffd5b5f5b8381101562000517578181015183820152602001620004fd565b50505f910152565b5f806040838503121562000531575f80fd5b82516001600160a01b038116811462000548575f80fd5b60208401519092506001600160401b038082111562000565575f80fd5b818501915085601f83011262000579575f80fd5b8151818111156200058e576200058e620004e7565b604051601f8201601f19908116603f01168101908382118183101715620005b957620005b9620004e7565b81604052828152886020848701011115620005d2575f80fd5b620005e5836020830160208801620004fb565b80955050505050509250929050565b600181811c908216806200060957607f821691505b6020821081036200062857634e487b7160e01b5f52602260045260245ffd5b50919050565b601f8211156200018e57805f5260205f20601f840160051c81016020851015620006555750805b601f840160051c820191505b8181101562000676575f815560010162000661565b5050505050565b81516001600160401b03811115620006995762000699620004e7565b620006b181620006aa8454620005f4565b846200062e565b602080601f831160018114620006e7575f8415620006cf5750858301515b5f19600386901b1c1916600185901b17855562000741565b5f85815260208120601f198616915b828110156200071757888601518255948401946001909101908401620006f6565b50858210156200073557878501515f19600388901b60f8161c191681555b505060018460011b0185555b505050505050565b828152604060208201525f82518060408401526200076f816060850160208701620004fb565b601f01601f1916919091016060019392505050565b610f2780620007925f395ff3fe608060405234801561000f575f80fd5b50600436106100e5575f3560e01c806370a0823111610088578063a22cb46511610063578063a22cb465146101d0578063b88d4fde146101e3578063c87b56dd146101f6578063e985e9c514610209575f80fd5b806370a082311461019f5780637cc4b75e146101c057806395d89b41146101c8575f80fd5b8063095ea7b3116100c3578063095ea7b31461015157806323b872dd1461016657806342842e0e146101795780636352211e1461018c575f80fd5b806301ffc9a7146100e957806306fdde0314610111578063081812fc14610126575b5f80fd5b6100fc6100f7366004610be5565b610244565b60405190151581526020015b60405180910390f35b610119610295565b6040516101089190610c4d565b610139610134366004610c5f565b610324565b6040516001600160a01b039091168152602001610108565b61016461015f366004610c91565b61034b565b005b610164610174366004610cb9565b61035a565b610164610187366004610cb9565b6103e8565b61013961019a366004610c5f565b610407565b6101b26101ad366004610cf2565b610411565b604051908152602001610108565b610119610456565b61011961048f565b6101646101de366004610d0b565b61049e565b6101646101f1366004610d58565b6104a9565b610119610204366004610c5f565b6104c0565b6100fc610217366004610e2d565b6001600160a01b039182165f90815260056020908152604080832093909416825291909152205460ff1690565b5f6001600160e01b031982166380ac58cd60e01b148061027457506001600160e01b03198216635b5e139f60e01b145b8061028f57506301ffc9a760e01b6001600160e01b03198316145b92915050565b60605f80546102a390610e5e565b80601f01602080910402602001604051908101604052809291908181526020018280546102cf90610e5e565b801561031a5780601f106102f15761010080835404028352916020019161031a565b820191905f5260205f20905b8154815290600101906020018083116102fd57829003601f168201915b5050505050905090565b5f61032e82610531565b505f828152600460205260409020546001600160a01b031661028f565b610356828233610569565b5050565b6001600160a01b03821661038857604051633250574960e11b81525f60048201526024015b60405180910390fd5b5f610394838333610576565b9050836001600160a01b0316816001600160a01b0316146103e2576040516364283d7b60e01b81526001600160a01b038086166004830152602482018490528216604482015260640161037f565b50505050565b61040283838360405180602001604052805f8152506104a9565b505050565b5f61028f82610531565b5f6001600160a01b03821661043b576040516322718ad960e21b81525f600482015260240161037f565b506001600160a01b03165f9081526003602052604090205490565b60015f5260066020527f3e5fec24aa4dc4e5aee2e025e51e1392c72a2500577559fae9665c6d52bd6a318054606091906102a390610e5e565b6060600180546102a390610e5e565b610356338383610675565b6104b484848461035a565b6103e284848484610713565b60606104cb82610531565b505f6104e160408051602081019091525f815290565b90505f8151116104ff5760405180602001604052805f81525061052a565b8061050984610839565b60405160200161051a929190610e96565b6040516020818303038152906040525b9392505050565b5f818152600260205260408120546001600160a01b03168061028f57604051637e27328960e01b81526004810184905260240161037f565b61040283838360016108d6565b5f828152600260205260408120546001600160a01b03908116908316156105a2576105a2818486610a05565b6001600160a01b038116156105dc576105bd5f855f806108d6565b6001600160a01b0381165f90815260036020526040902080545f190190555b6001600160a01b0385161561060a576001600160a01b0385165f908152600360205260409020805460010190555b5f84815260026020526040808220805473ffffffffffffffffffffffffffffffffffffffff19166001600160a01b0389811691821790925591518793918516917fddf252ad1be2c89b69c2b068fc378daa952ba7f163c4a11628f55a4df523b3ef91a4949350505050565b6001600160a01b0382166106a757604051630b61174360e31b81526001600160a01b038316600482015260240161037f565b6001600160a01b038381165f81815260056020908152604080832094871680845294825291829020805460ff191686151590811790915591519182527f17307eab39ab6107e8899845ad3d59bd9653f200f220920489ca2b5937696c31910160405180910390a3505050565b6001600160a01b0383163b156103e257604051630a85bd0160e11b81526001600160a01b0384169063150b7a0290610755903390889087908790600401610ec4565b6020604051808303815f875af192505050801561078f575060408051601f3d908101601f1916820190925261078c91810190610eff565b60015b6107f6573d8080156107bc576040519150601f19603f3d011682016040523d82523d5f602084013e6107c1565b606091505b5080515f036107ee57604051633250574960e11b81526001600160a01b038516600482015260240161037f565b805181602001fd5b6001600160e01b03198116630a85bd0160e11b1461083257604051633250574960e11b81526001600160a01b038516600482015260240161037f565b5050505050565b60605f61084583610a69565b60010190505f8167ffffffffffffffff81111561086457610864610d44565b6040519080825280601f01601f19166020018201604052801561088e576020820181803683370190505b5090508181016020015b5f19017f3031323334353637383961626364656600000000000000000000000000000000600a86061a8153600a850494508461089857509392505050565b80806108ea57506001600160a01b03821615155b156109c9575f6108f984610531565b90506001600160a01b038316158015906109255750826001600160a01b0316816001600160a01b031614155b801561095657506001600160a01b038082165f9081526005602090815260408083209387168352929052205460ff16155b1561097f5760405163a9fbf51f60e01b81526001600160a01b038416600482015260240161037f565b81156109c75783856001600160a01b0316826001600160a01b03167f8c5be1e5ebec7d5bd14f71427d1e84f3dd0314c0f7b2291e5b200ac8c7c3b92560405160405180910390a45b505b50505f908152600460205260409020805473ffffffffffffffffffffffffffffffffffffffff19166001600160a01b0392909216919091179055565b610a10838383610b4a565b610402576001600160a01b038316610a3e57604051637e27328960e01b81526004810182905260240161037f565b60405163177e802f60e01b81526001600160a01b03831660048201526024810182905260440161037f565b5f807a184f03e93ff9f4daa797ed6e38ed64bf6a1f0100000000000000008310610ab1577a184f03e93ff9f4daa797ed6e38ed64bf6a1f010000000000000000830492506040015b6d04ee2d6d415b85acef81000000008310610add576d04ee2d6d415b85acef8100000000830492506020015b662386f26fc100008310610afb57662386f26fc10000830492506010015b6305f5e1008310610b13576305f5e100830492506008015b6127108310610b2757612710830492506004015b60648310610b39576064830492506002015b600a831061028f5760010192915050565b5f6001600160a01b03831615801590610bc55750826001600160a01b0316846001600160a01b03161480610ba257506001600160a01b038085165f9081526005602090815260408083209387168352929052205460ff165b80610bc557505f828152600460205260409020546001600160a01b038481169116145b949350505050565b6001600160e01b031981168114610be2575f80fd5b50565b5f60208284031215610bf5575f80fd5b813561052a81610bcd565b5f5b83811015610c1a578181015183820152602001610c02565b50505f910152565b5f8151808452610c39816020860160208601610c00565b601f01601f19169290920160200192915050565b602081525f61052a6020830184610c22565b5f60208284031215610c6f575f80fd5b5035919050565b80356001600160a01b0381168114610c8c575f80fd5b919050565b5f8060408385031215610ca2575f80fd5b610cab83610c76565b946020939093013593505050565b5f805f60608486031215610ccb575f80fd5b610cd484610c76565b9250610ce260208501610c76565b9150604084013590509250925092565b5f60208284031215610d02575f80fd5b61052a82610c76565b5f8060408385031215610d1c575f80fd5b610d2583610c76565b915060208301358015158114610d39575f80fd5b809150509250929050565b634e487b7160e01b5f52604160045260245ffd5b5f805f8060808587031215610d6b575f80fd5b610d7485610c76565b9350610d8260208601610c76565b925060408501359150606085013567ffffffffffffffff80821115610da5575f80fd5b818701915087601f830112610db8575f80fd5b813581811115610dca57610dca610d44565b604051601f8201601f19908116603f01168101908382118183101715610df257610df2610d44565b816040528281528a6020848701011115610e0a575f80fd5b826020860160208301375f60208483010152809550505050505092959194509250565b5f8060408385031215610e3e575f80fd5b610e4783610c76565b9150610e5560208401610c76565b90509250929050565b600181811c90821680610e7257607f821691505b602082108103610e9057634e487b7160e01b5f52602260045260245ffd5b50919050565b5f8351610ea7818460208801610c00565b835190830190610ebb818360208801610c00565b01949350505050565b5f6001600160a01b03808716835280861660208401525083604083015260806060830152610ef56080830184610c22565b9695505050505050565b5f60208284031215610f0f575f80fd5b815161052a81610bcd56fea164736f6c6343000816000a",
  "linkReferences": {},
  "deployedLinkReferences": {}
}