{
  "_format": "hh-sol-artifact-1",
  "contractName": "ActivityNFTFactory",
  "sourceName": "contracts/ActivityNft.sol",
  "abi": [
    {
      "anonymous": false,
      "inputs": [
        {
          "indexed": false,
          "internalType": "address",
          "name": "activityNFTAddress",
          "type": "address"
        },
        {
          "indexed": false,
          "internalType": "address",
          "name": "blindAuctionAddress",
          "type": "address"
        }
      ],
      "name": "ActivityNFTCreated",
      "type": "event"
    },
    {
      "inputs": [
        {
          "internalType": "string",
          "name": "activityRight",
          "type": "string"
        },
        {
          "internalType": "address",
          "name": "encryptedERC20Address",
          "type": "address"
        },
        {
          "internalType": "uint256",
          "name": "biddingTime",
          "type": "uint256"
        }
      ],
      "name": "createActivityNFT",
      "outputs": [
        {
          "internalType": "address",
          "name": "",
          "type": "address"
        }
      ],
      "stateMutability": "nonpayable",
      "type": "function"
    }
  ],
  "bytecode": "0x608060405234801561000f575f80fd5b50613d268061001d5f395ff3fe608060405234801561000f575f80fd5b5060043610610029575f3560e01c8063163ace691461002d575b5f80fd5b61004061003b3660046101a7565b61005c565b6040516001600160a01b03909116815260200160405180910390f35b5f80308560405161006c9061015c565b61007792919061026b565b604051809103905ff080158015610090573d5f803e3d5ffd5b5090505f338585600130606487336040516100aa9061016a565b6001600160a01b039889168152968816602088015260408701959095529215156060860152908516608085015261ffff1660a0840152831660c083015290911660e082015261010001604051809103905ff08015801561010c573d5f803e3d5ffd5b50604080516001600160a01b038086168252831660208201529192507fc715dacfd4d66d34dd947a36b2a2a3abde1947f524011d5176129c3133e1ebb3910160405180910390a150949350505050565b6116b980620002c983390190565b612398806200198283390190565b634e487b7160e01b5f52604160045260245ffd5b80356001600160a01b03811681146101a2575f80fd5b919050565b5f805f606084860312156101b9575f80fd5b833567ffffffffffffffff808211156101d0575f80fd5b818601915086601f8301126101e3575f80fd5b8135818111156101f5576101f5610178565b604051601f8201601f19908116603f0116810190838211818310171561021d5761021d610178565b81604052828152896020848701011115610235575f80fd5b826020860160208301375f60208483010152809750505050505061025b6020850161018c565b9150604084013590509250925092565b6001600160a01b03831681525f60206040602084015283518060408501525f5b818110156102a75785810183015185820160600152820161028b565b505f606082860101526060601f19601f83011685010192505050939250505056fe608060405234801562000010575f80fd5b50604051620016b9380380620016b983398101604081905262000033916200051f565b6040518060400160405280600b81526020016a1058dd1a5d9a5d1e53919560aa1b815250604051806040016040528060038152602001621050d560ea1b815250815f90816200008391906200067d565b5060016200009282826200067d565b505050620000a88260016200012360201b60201c565b60015f5260066020527f3e5fec24aa4dc4e5aee2e025e51e1392c72a2500577559fae9665c6d52bd6a31620000de82826200067d565b507f30e6441d0c4c928fa91edf43f90db4abc8d73aa103dd37305dd58c3e6263c1406001826040516200011392919062000749565b60405180910390a1505062000784565b6001600160a01b0382166200015257604051633250574960e11b81525f60048201526024015b60405180910390fd5b5f6200016083838362000193565b90506001600160a01b038116156200018e576040516339e3563760e11b81525f600482015260240162000149565b505050565b5f828152600260205260408120546001600160a01b0390811690831615620001c257620001c28184866200028c565b6001600160a01b03811615620001ff57620001e05f858180620002f6565b6001600160a01b0381165f90815260036020526040902080545f190190555b6001600160a01b038516156200022e576001600160a01b0385165f908152600360205260409020805460010190555b5f8481526002602052604080822080546001600160a01b0319166001600160a01b0389811691821790925591518793918516917fddf252ad1be2c89b69c2b068fc378daa952ba7f163c4a11628f55a4df523b3ef91a4949350505050565b6200029983838362000421565b6200018e576001600160a01b038316620002ca57604051637e27328960e01b81526004810182905260240162000149565b60405163177e802f60e01b81526001600160a01b03831660048201526024810182905260440162000149565b80806200030b57506001600160a01b03821615155b15620003f2575f6200031d84620004a7565b90506001600160a01b038316158015906200034a5750826001600160a01b0316816001600160a01b031614155b80156200037c57506001600160a01b038082165f9081526005602090815260408083209387168352929052205460ff16155b15620003a75760405163a9fbf51f60e01b81526001600160a01b038416600482015260240162000149565b8115620003f05783856001600160a01b0316826001600160a01b03167f8c5be1e5ebec7d5bd14f71427d1e84f3dd0314c0f7b2291e5b200ac8c7c3b92560405160405180910390a45b505b50505f90815260046020526040902080546001600160a01b0319166001600160a01b0392909216919091179055565b5f6001600160a01b038316158015906200049f5750826001600160a01b0316846001600160a01b031614806200047b57506001600160a01b038085165f9081526005602090815260408083209387168352929052205460ff165b806200049f57505f828152600460205260409020546001600160a01b038481169116145b949350505050565b5f818152600260205260408120546001600160a01b031680620004e157604051637e27328960e01b81526004810184905260240162000149565b92915050565b634e487b7160e01b5f52604160045260245ffd5b5f5b8381101562000517578181015183820152602001620004fd565b50505f910152565b5f806040838503121562000531575f80fd5b82516001600160a01b038116811462000548575f80fd5b60208401519092506001600160401b038082111562000565575f80fd5b818501915085601f83011262000579575f80fd5b8151818111156200058e576200058e620004e7565b604051601f8201601f19908116603f01168101908382118183101715620005b957620005b9620004e7565b81604052828152886020848701011115620005d2575f80fd5b620005e5836020830160208801620004fb565b80955050505050509250929050565b600181811c908216806200060957607f821691505b6020821081036200062857634e487b7160e01b5f52602260045260245ffd5b50919050565b601f8211156200018e57805f5260205f20601f840160051c81016020851015620006555750805b601f840160051c820191505b8181101562000676575f815560010162000661565b5050505050565b81516001600160401b03811115620006995762000699620004e7565b620006b181620006aa8454620005f4565b846200062e565b602080601f831160018114620006e7575f8415620006cf5750858301515b5f19600386901b1c1916600185901b17855562000741565b5f85815260208120601f198616915b828110156200071757888601518255948401946001909101908401620006f6565b50858210156200073557878501515f19600388901b60f8161c191681555b505060018460011b0185555b505050505050565b828152604060208201525f82518060408401526200076f816060850160208701620004fb565b601f01601f1916919091016060019392505050565b610f2780620007925f395ff3fe608060405234801561000f575f80fd5b50600436106100e5575f3560e01c806370a0823111610088578063a22cb46511610063578063a22cb465146101d0578063b88d4fde146101e3578063c87b56dd146101f6578063e985e9c514610209575f80fd5b806370a082311461019f5780637cc4b75e146101c057806395d89b41146101c8575f80fd5b8063095ea7b3116100c3578063095ea7b31461015157806323b872dd1461016657806342842e0e146101795780636352211e1461018c575f80fd5b806301ffc9a7146100e957806306fdde0314610111578063081812fc14610126575b5f80fd5b6100fc6100f7366004610be5565b610244565b60405190151581526020015b60405180910390f35b610119610295565b6040516101089190610c4d565b610139610134366004610c5f565b610324565b6040516001600160a01b039091168152602001610108565b61016461015f366004610c91565b61034b565b005b610164610174366004610cb9565b61035a565b610164610187366004610cb9565b6103e8565b61013961019a366004610c5f565b610407565b6101b26101ad366004610cf2565b610411565b604051908152602001610108565b610119610456565b61011961048f565b6101646101de366004610d0b565b61049e565b6101646101f1366004610d58565b6104a9565b610119610204366004610c5f565b6104c0565b6100fc610217366004610e2d565b6001600160a01b039182165f90815260056020908152604080832093909416825291909152205460ff1690565b5f6001600160e01b031982166380ac58cd60e01b148061027457506001600160e01b03198216635b5e139f60e01b145b8061028f57506301ffc9a760e01b6001600160e01b03198316145b92915050565b60605f80546102a390610e5e565b80601f01602080910402602001604051908101604052809291908181526020018280546102cf90610e5e565b801561031a5780601f106102f15761010080835404028352916020019161031a565b820191905f5260205f20905b8154815290600101906020018083116102fd57829003601f168201915b5050505050905090565b5f61032e82610531565b505f828152600460205260409020546001600160a01b031661028f565b610356828233610569565b5050565b6001600160a01b03821661038857604051633250574960e11b81525f60048201526024015b60405180910390fd5b5f610394838333610576565b9050836001600160a01b0316816001600160a01b0316146103e2576040516364283d7b60e01b81526001600160a01b038086166004830152602482018490528216604482015260640161037f565b50505050565b61040283838360405180602001604052805f8152506104a9565b505050565b5f61028f82610531565b5f6001600160a01b03821661043b576040516322718ad960e21b81525f600482015260240161037f565b506001600160a01b03165f9081526003602052604090205490565b60015f5260066020527f3e5fec24aa4dc4e5aee2e025e51e1392c72a2500577559fae9665c6d52bd6a318054606091906102a390610e5e565b6060600180546102a390610e5e565b610356338383610675565b6104b484848461035a565b6103e284848484610713565b60606104cb82610531565b505f6104e160408051602081019091525f815290565b90505f8151116104ff5760405180602001604052805f81525061052a565b8061050984610839565b60405160200161051a929190610e96565b6040516020818303038152906040525b9392505050565b5f818152600260205260408120546001600160a01b03168061028f57604051637e27328960e01b81526004810184905260240161037f565b61040283838360016108d6565b5f828152600260205260408120546001600160a01b03908116908316156105a2576105a2818486610a05565b6001600160a01b038116156105dc576105bd5f855f806108d6565b6001600160a01b0381165f90815260036020526040902080545f190190555b6001600160a01b0385161561060a576001600160a01b0385165f908152600360205260409020805460010190555b5f84815260026020526040808220805473ffffffffffffffffffffffffffffffffffffffff19166001600160a01b0389811691821790925591518793918516917fddf252ad1be2c89b69c2b068fc378daa952ba7f163c4a11628f55a4df523b3ef91a4949350505050565b6001600160a01b0382166106a757604051630b61174360e31b81526001600160a01b038316600482015260240161037f565b6001600160a01b038381165f81815260056020908152604080832094871680845294825291829020805460ff191686151590811790915591519182527f17307eab39ab6107e8899845ad3d59bd9653f200f220920489ca2b5937696c31910160405180910390a3505050565b6001600160a01b0383163b156103e257604051630a85bd0160e11b81526001600160a01b0384169063150b7a0290610755903390889087908790600401610ec4565b6020604051808303815f875af192505050801561078f575060408051601f3d908101601f1916820190925261078c91810190610eff565b60015b6107f6573d8080156107bc576040519150601f19603f3d011682016040523d82523d5f602084013e6107c1565b606091505b5080515f036107ee57604051633250574960e11b81526001600160a01b038516600482015260240161037f565b805181602001fd5b6001600160e01b03198116630a85bd0160e11b1461083257604051633250574960e11b81526001600160a01b038516600482015260240161037f565b5050505050565b60605f61084583610a69565b60010190505f8167ffffffffffffffff81111561086457610864610d44565b6040519080825280601f01601f19166020018201604052801561088e576020820181803683370190505b5090508181016020015b5f19017f3031323334353637383961626364656600000000000000000000000000000000600a86061a8153600a850494508461089857509392505050565b80806108ea57506001600160a01b03821615155b156109c9575f6108f984610531565b90506001600160a01b038316158015906109255750826001600160a01b0316816001600160a01b031614155b801561095657506001600160a01b038082165f9081526005602090815260408083209387168352929052205460ff16155b1561097f5760405163a9fbf51f60e01b81526001600160a01b038416600482015260240161037f565b81156109c75783856001600160a01b0316826001600160a01b03167f8c5be1e5ebec7d5bd14f71427d1e84f3dd0314c0f7b2291e5b200ac8c7c3b92560405160405180910390a45b505b50505f908152600460205260409020805473ffffffffffffffffffffffffffffffffffffffff19166001600160a01b0392909216919091179055565b610a10838383610b4a565b610402576001600160a01b038316610a3e57604051637e27328960e01b81526004810182905260240161037f565b60405163177e802f60e01b81526001600160a01b03831660048201526024810182905260440161037f565b5f807a184f03e93ff9f4daa797ed6e38ed64bf6a1f0100000000000000008310610ab1577a184f03e93ff9f4daa797ed6e38ed64bf6a1f010000000000000000830492506040015b6d04ee2d6d415b85acef81000000008310610add576d04ee2d6d415b85acef8100000000830492506020015b662386f26fc100008310610afb57662386f26fc10000830492506010015b6305f5e1008310610b13576305f5e100830492506008015b6127108310610b2757612710830492506004015b60648310610b39576064830492506002015b600a831061028f5760010192915050565b5f6001600160a01b03831615801590610bc55750826001600160a01b0316846001600160a01b03161480610ba257506001600160a01b038085165f9081526005602090815260408083209387168352929052205460ff165b80610bc557505f828152600460205260409020546001600160a01b038481169116145b949350505050565b6001600160e01b031981168114610be2575f80fd5b50565b5f60208284031215610bf5575f80fd5b813561052a81610bcd565b5f5b83811015610c1a578181015183820152602001610c02565b50505f910152565b5f8151808452610c39816020860160208601610c00565b601f01601f19169290920160200192915050565b602081525f61052a6020830184610c22565b5f60208284031215610c6f575f80fd5b5035919050565b80356001600160a01b0381168114610c8c575f80fd5b919050565b5f8060408385031215610ca2575f80fd5b610cab83610c76565b946020939093013593505050565b5f805f60608486031215610ccb575f80fd5b610cd484610c76565b9250610ce260208501610c76565b9150604084013590509250925092565b5f60208284031215610d02575f80fd5b61052a82610c76565b5f8060408385031215610d1c575f80fd5b610d2583610c76565b915060208301358015158114610d39575f80fd5b809150509250929050565b634e487b7160e01b5f52604160045260245ffd5b5f805f8060808587031215610d6b575f80fd5b610d7485610c76565b9350610d8260208601610c76565b925060408501359150606085013567ffffffffffffffff80821115610da5575f80fd5b818701915087601f830112610db8575f80fd5b813581811115610dca57610dca610d44565b604051601f8201601f19908116603f01168101908382118183101715610df257610df2610d44565b816040528281528a6020848701011115610e0a575f80fd5b826020860160208301375f60208483010152809550505050505092959194509250565b5f8060408385031215610e3e575f80fd5b610e4783610c76565b9150610e5560208401610c76565b90509250929050565b600181811c90821680610e7257607f821691505b602082108103610e9057634e487b7160e01b5f52602260045260245ffd5b50919050565b5f8351610ea7818460208801610c00565b835190830190610ebb818360208801610c00565b01949350505050565b5f6001600160a01b03808716835280861660208401525083604083015260806060830152610ef56080830184610c22565b9695505050505050565b5f60208284031215610f0f575f80fd5b815161052a81610bcd56fea164736f6c6343000816000a6101606040526009805462ff0000191690553480156200001d575f80fd5b506040516200239838038062002398833981016040819052620000409162000393565b604080518082018252601381527f417574686f72697a6174696f6e20746f6b656e00000000000000000000000000602080830191909152825180840190935260018352603160f81b908301529062000099825f62000228565b61012052620000aa81600162000228565b61014052815160208084019190912060e052815190820120610100524660a0526200013760e05161010051604080517f8b73c3c69bb8fe3d512ecc4cf759cc79239f7b179b0ffacaa9a75d522b39400f60208201529081019290925260608201524660808201523060a08201525f9060c00160405160208183030381529060405280519060200120905090565b60805250503060c052600380546001600160a01b038a81166001600160a01b03199283161790925560078054928a16929091169190911790556200017c864262000439565b6002556200018a5f62000260565b600855600980545f60065562ff0001600160b81b031916610100871515026301000000600160b81b0319161763010000006001600160a01b038481169190910291909117909155600a80546001600160a01b031916918616919091179055620001f761ffff841662000284565b600b5550600c80546001600160a01b0319166001600160a01b0392909216919091179055506200064d945050505050565b5f60208351101562000247576200023f8362000292565b90506200025a565b81620002548482620004f7565b5060ff90505b92915050565b5f811562000274576200025a6001620002dd565b6200025a5f620002dd565b919050565b5f6200025a826005620002e5565b5f80829050601f81511115620002c8578260405163305a27a960e01b8152600401620002bf9190620005c3565b60405180910390fd5b8051620002d58262000611565b179392505050565b5f6200025a82825b604051631ce2e8d760e31b8152600481018390527fff0000000000000000000000000000000000000000000000000000000000000060f883901b1660248201525f90605d9063e71746b890604401602060405180830381865afa1580156200034f573d5f803e3d5ffd5b505050506040513d601f19601f8201168201806040525081019062000375919062000635565b9392505050565b80516001600160a01b03811681146200027f575f80fd5b5f805f805f805f80610100898b031215620003ac575f80fd5b620003b7896200037c565b9750620003c760208a016200037c565b96506040890151955060608901518015158114620003e3575f80fd5b9450620003f360808a016200037c565b935060a089015161ffff811681146200040a575f80fd5b92506200041a60c08a016200037c565b91506200042a60e08a016200037c565b90509295985092959890939650565b808201808211156200025a57634e487b7160e01b5f52601160045260245ffd5b634e487b7160e01b5f52604160045260245ffd5b600181811c908216806200048257607f821691505b602082108103620004a157634e487b7160e01b5f52602260045260245ffd5b50919050565b601f821115620004f257805f5260205f20601f840160051c81016020851015620004ce5750805b601f840160051c820191505b81811015620004ef575f8155600101620004da565b50505b505050565b81516001600160401b0381111562000513576200051362000459565b6200052b816200052484546200046d565b84620004a7565b602080601f83116001811462000561575f8415620005495750858301515b5f19600386901b1c1916600185901b178555620005bb565b5f85815260208120601f198616915b82811015620005915788860151825594840194600190910190840162000570565b5085821015620005af57878501515f19600388901b60f8161c191681555b505060018460011b0185555b505050505050565b5f602080835283518060208501525f5b81811015620005f157858101830151858201604001528201620005d3565b505f604082860101526040601f19601f8301168501019250505092915050565b80516020808301519190811015620004a1575f1960209190910360031b1b16919050565b5f6020828403121562000646575f80fd5b5051919050565b60805160a05160c05160e051610100516101205161014051611cf96200069f5f395f610f4401525f610f1301525f6115ff01525f6115d701525f61153201525f61155c01525f6115860152611cf95ff3fe608060405234801561000f575f80fd5b5060043610610149575f3560e01c806355a373d6116100c7578063bb4872de1161007d578063c5822c0d11610063578063c5822c0d14610284578063ce606ee014610291578063edfdc41c146102ab575f80fd5b8063bb4872de14610259578063be231a2d1461027b575f80fd5b80639d89899c116100ad5780639d89899c14610213578063b505bf5f14610233578063b9ae1a4314610246575f80fd5b806355a373d6146101e557806384b0196e146101f8575f80fd5b806331e375301161011c5780633ccfd60b116101025780633ccfd60b146101c257806346904840146101ca5780634e71d92d146101dd575f80fd5b806331e375301461018457806338af3eed14610197575f80fd5b806303f693541461014d57806307da68f5146101695780632a24f46c146101735780633197cbb61461017b575b5f80fd5b61015660065481565b6040519081526020015b60405180910390f35b6101716102be565b005b610171610301565b61015660025481565b6101716101923660046119df565b61048b565b6003546101aa906001600160a01b031681565b6040516001600160a01b039091168152602001610160565b6101716108a0565b600a546101aa906001600160a01b031681565b6101716109fb565b6007546101aa906001600160a01b031681565b610200610a97565b6040516101609796959493929190611a6b565b610226610221366004611b02565b610ad9565b6040516101609190611b4a565b610226610241366004611b02565b610c98565b600c546101aa906001600160a01b031681565b60095461026b90610100900460ff1681565b6040519015158152602001610160565b610156600b5481565b60095461026b9060ff1681565b6009546101aa90630100000090046001600160a01b031681565b60095461026b9062010000900460ff1681565b600954630100000090046001600160a01b031633146102db575f80fd5b600954610100900460ff166102ee575f80fd5b6009805462ff0000191662010000179055565b600254421115801561031c575060095462010000900460ff16155b1561034957600254604051630a8d68c960e21b815260040161034091815260200190565b60405180910390fd5b60095460ff1615610358575f80fd5b6009805460ff19166001179055600454600b545f9161037691610dc1565b90506127105f6103868383610df8565b600754600a5460405163a9059cbb60e01b81526001600160a01b03918216600482015260248101849052929350169063a9059cbb906044016020604051808303815f875af11580156103da573d5f803e3d5ffd5b505050506040513d601f19601f820116820180604052508101906103fe9190611b5c565b505f61040c60045483610e1e565b60075460035460405163a9059cbb60e01b81526001600160a01b03918216600482015260248101849052929350169063a9059cbb906044016020604051808303815f875af1158015610460573d5f803e3d5ffd5b505050506040513d601f19601f820116820180604052508101906104849190611b5c565b5050505050565b600254421015806104a9575060095462010000900460ff1615156001145b156104cd5760025460405163348f2b4160e11b815260040161034091815260200190565b5f61050c83838080601f0160208091040260200160405190810160405280939291908181526020018383808284375f92019190915250610e2992505050565b335f9081526005602052604090205490915080156106da5760075460408051630eb2b9c960e01b815290515f926001600160a01b031691630eb2b9c99160048083019260209291908290030181865afa15801561056b573d5f803e3d5ffd5b505050506040513d601f19601f8201168201806040525081019061058f9190611b7b565b90505f61059c8385610e35565b90505f6105a98585610e1e565b90505f6105bf83836105ba5f610e63565b610e6f565b6007546040516323b872dd60e01b8152336004820152306024820152604481018390529192506001600160a01b0316906323b872dd906064016020604051808303815f875af1158015610614573d5f803e3d5ffd5b505050506040513d601f19601f820116820180604052508101906106389190611b5c565b5060075460408051630eb2b9c960e01b815290515f926001600160a01b031691630eb2b9c99160048083019260209291908290030181865afa158015610680573d5f803e3d5ffd5b505050506040513d601f19601f820116820180604052508101906106a49190611b7b565b90505f6106b18287610e1e565b90505f6106be8883610e85565b335f908152600560205260409020555061085e95505050505050565b60068054905f6106e983611b92565b909155505060075460408051630eb2b9c960e01b815290515f926001600160a01b031691630eb2b9c99160048083019260209291908290030181865afa158015610735573d5f803e3d5ffd5b505050506040513d601f19601f820116820180604052508101906107599190611b7b565b6007546040516323b872dd60e01b8152336004820152306024820152604481018690529192506001600160a01b0316906323b872dd906064016020604051808303815f875af11580156107ae573d5f803e3d5ffd5b505050506040513d601f19601f820116820180604052508101906107d29190611b5c565b5060075460408051630eb2b9c960e01b815290515f926001600160a01b031691630eb2b9c99160048083019260209291908290030181865afa15801561081a573d5f803e3d5ffd5b505050506040513d601f19601f8201168201806040525081019061083e9190611b7b565b90505f61084b8284610e1e565b335f908152600560205260409020555050505b335f9081526005602052604090205460045461087e576004819055610484565b61089661088d60045483610e35565b82600454610e6f565b6004555050505050565b60025442111580156108bb575060095462010000900460ff16155b156108df57600254604051630a8d68c960e21b815260040161034091815260200190565b335f908152600560205260408120546004549091906108ff908390610e90565b90505f61091e61091983610914600854610ebe565b610ec8565b610ebe565b6007549091506001600160a01b031663a9059cbb3361094184876105ba5f610e63565b6040517fffffffff0000000000000000000000000000000000000000000000000000000060e085901b1681526001600160a01b03909216600483015260248201526044016020604051808303815f875af11580156109a1573d5f803e3d5ffd5b505050506040513d601f19601f820116820180604052508101906109c59190611b5c565b506109e7816109d35f610e63565b335f90815260056020526040902054610e6f565b335f90815260056020526040902055505050565b6002544211158015610a16575060095462010000900460ff16155b15610a3a57600254604051630a8d68c960e21b815260040161034091815260200190565b600454335f908152600560205260408120549091610a6791610a5c9190610ed3565b610914600854610ebe565b9050610a7581600854610f01565b600855610a85816109d35f610e63565b335f9081526005602052604090205550565b5f6060805f805f6060610aa8610f0c565b610ab0610f3d565b604080515f80825260208201909252600f60f81b9b939a50919850469750309650945092509050565b60606002544211158015610af6575060095462010000900460ff16155b15610b1a57600254604051630a8d68c960e21b815260040161034091815260200190565b8383838080601f0160208091040260200160405190810160405280939291908181526020018383808284375f920182905250604080517f051d137ae0e1fae6e3b6559fed4442b35a85a9a39789838ad5c9ea05e7da2dce6020820152908101879052909350610ba5925060600190505b60405160208183030381529060405280519060200120610f6a565b90505f610bb28284610f96565b90506001600160a01b0381163314610c325760405162461bcd60e51b815260206004820152603160248201527f454950373132207369676e657220616e64207472616e73616374696f6e20736960448201527f676e657220646f206e6f74206d617463680000000000000000000000000000006064820152608401610340565b60045415158015610c505750335f9081526005602052604090205415155b15610c8157600454335f90815260056020526040902054610c7a91610c7491610ed3565b89610fbe565b9450610c8d565b610c7a610c745f610fca565b505050509392505050565b60608383838080601f0160208091040260200160405190810160405280939291908181526020018383808284375f920182905250604080517f051d137ae0e1fae6e3b6559fed4442b35a85a9a39789838ad5c9ea05e7da2dce6020820152908101879052909350610d0e92506060019050610b8a565b90505f610d1b8284610f96565b90506001600160a01b0381163314610d9b5760405162461bcd60e51b815260206004820152603160248201527f454950373132207369676e657220616e64207472616e73616374696f6e20736960448201527f676e657220646f206e6f74206d617463680000000000000000000000000000006064820152608401610340565b335f90815260056020526040812054610db5918a90610fe4565b98975050505050505050565b5f82610dd357610dd05f610e63565b92505b81610de457610de15f610e63565b91505b610def83835f611019565b90505b92915050565b5f82610e0a57610e075f610e63565b92505b610def838367ffffffffffffffff166110af565b5f610def838361112c565b5f610df282600561115a565b5f82610e4757610e445f610e63565b92505b81610e5857610e555f610e63565b91505b610def83835f6111a6565b5f610df28260056111f8565b5f610e7b84848461126d565b90505b9392505050565b5f610def83836112dc565b5f82610ea257610e9f5f610e63565b92505b81610eb357610eb05f610e63565b91505b610def83835f61130a565b5f610df28261135c565b5f610def83836113bd565b5f82610ee557610ee25f610e63565b92505b81610ef657610ef35f610e63565b91505b610def83835f6113f4565b5f610def8383611446565b6060610f387f00000000000000000000000000000000000000000000000000000000000000005f61147d565b905090565b6060610f387f0000000000000000000000000000000000000000000000000000000000000000600161147d565b5f610df2610f76611526565b8360405161190160f01b8152600281019290925260228201526042902090565b5f805f80610fa4868661164f565b925092509250610fb48282611698565b5090949350505050565b6060610def8383611754565b5f8115610fdb57610df260016117bf565b610df25f6117bf565b60608315610ffd57610ff68484611754565b9050610e7e565b610ff66110138367ffffffffffffffff16610e63565b84611754565b5f80821561102c5750600160f81b61102f565b505f5b60405163816d57d360e01b815260048101869052602481018590526001600160f81b031982166044820152605d9063816d57d3906064015b602060405180830381865afa158015611082573d5f803e3d5ffd5b505050506040513d601f19601f820116820180604052508101906110a69190611b7b565b95945050505050565b6040516336cdd31b60e01b81526004810183905260248101829052600160f81b604482018190525f91605d906336cdd31b906064015b602060405180830381865afa158015611100573d5f803e3d5ffd5b505050506040513d601f19601f820116820180604052508101906111249190611b7b565b949350505050565b5f8261113e5761113b5f610e63565b92505b8161114f5761114c5f610e63565b91505b610def83835f6117ca565b5f80838360f81b604051602001611172929190611bca565b60408051601f1981840301815290829052630964a5d960e31b82529150605d90634b252ec8906110e5908490600401611b4a565b5f8082156111b95750600160f81b6111bc565b505f5b604051639675211f60e01b815260048101869052602481018590526001600160f81b031982166044820152605d90639675211f90606401611067565b604051631ce2e8d760e31b8152600481018390526001600160f81b031960f883901b1660248201525f90605d9063e71746b890604401602060405180830381865afa158015611249573d5f803e3d5ffd5b505050506040513d601f19601f82011682018060405250810190610def9190611b7b565b60405163cb3b940760e01b81526004810184905260248101839052604481018290525f90605d9063cb3b940790606401602060405180830381865afa1580156112b8573d5f803e3d5ffd5b505050506040513d601f19601f82011682018060405250810190610e7b9190611b7b565b5f826112ee576112eb5f610e63565b92505b816112ff576112fc5f610e63565b91505b610def83835f61181c565b5f80821561131d5750600160f81b611320565b505f5b604051630d7c62eb60e31b815260048101869052602481018590526001600160f81b031982166044820152605d90636be3175890606401611067565b6040516309c00ffd60e11b8152600481018290525f90605d906313801ffa90602401602060405180830381865afa158015611399573d5f803e3d5ffd5b505050506040513d601f19601f82011682018060405250810190610df29190611b7b565b604051630ccd46b160e31b815260048101839052602481018290525f60448201819052908190605d9063666a3588906064016110e5565b5f8082156114075750600160f81b61140a565b505f5b6040516334a6d7b960e11b815260048101869052602481018590526001600160f81b031982166044820152605d9063694daf7290606401611067565b604051633b1015f760e21b815260048101839052602481018290525f60448201819052908190605d9063ec4057dc906064016110e5565b606060ff8314611497576114908361186e565b9050610df2565b8180546114a390611bf8565b80601f01602080910402602001604051908101604052809291908181526020018280546114cf90611bf8565b801561151a5780601f106114f15761010080835404028352916020019161151a565b820191905f5260205f20905b8154815290600101906020018083116114fd57829003601f168201915b50505050509050610df2565b5f306001600160a01b037f00000000000000000000000000000000000000000000000000000000000000001614801561157e57507f000000000000000000000000000000000000000000000000000000000000000046145b156115a857507f000000000000000000000000000000000000000000000000000000000000000090565b610f38604080517f8b73c3c69bb8fe3d512ecc4cf759cc79239f7b179b0ffacaa9a75d522b39400f60208201527f0000000000000000000000000000000000000000000000000000000000000000918101919091527f000000000000000000000000000000000000000000000000000000000000000060608201524660808201523060a08201525f9060c00160405160208183030381529060405280519060200120905090565b5f805f8351604103611686576020840151604085015160608601515f1a611678888285856118ab565b955095509550505050611691565b505081515f91506002905b9250925092565b5f8260038111156116ab576116ab611c30565b036116b4575050565b60018260038111156116c8576116c8611c30565b036116e65760405163f645eedf60e01b815260040160405180910390fd5b60028260038111156116fa576116fa611c30565b0361171b5760405163fce698f760e01b815260048101829052602401610340565b600382600381111561172f5761172f611c30565b03611750576040516335e2f38360e21b815260048101829052602401610340565b5050565b60405163d6ad57cd60e01b81526004810183905260248101829052606090605d9063d6ad57cd906044015f60405180830381865afa158015611798573d5f803e3d5ffd5b505050506040513d5f823e601f3d908101601f19168201604052610def9190810190611c44565b5f610df2825f6111f8565b5f8082156117dd5750600160f81b6117e0565b505f5b604051638c14cc2160e01b815260048101869052602481018590526001600160f81b031982166044820152605d90638c14cc2190606401611067565b5f80821561182f5750600160f81b611832565b505f5b60405163f953e42760e01b815260048101869052602481018590526001600160f81b031982166044820152605d9063f953e42790606401611067565b60605f61187a83611973565b6040805160208082528183019092529192505f91906020820181803683375050509182525060208101929092525090565b5f80807f7fffffffffffffffffffffffffffffff5d576e7357a4501ddfe92f46681b20a08411156118e457505f91506003905082611969565b604080515f808252602082018084528a905260ff891692820192909252606081018790526080810186905260019060a0016020604051602081039080840390855afa158015611935573d5f803e3d5ffd5b5050604051601f1901519150506001600160a01b03811661196057505f925060019150829050611969565b92505f91508190505b9450945094915050565b5f60ff8216601f811115610df257604051632cd44ac360e21b815260040160405180910390fd5b5f8083601f8401126119aa575f80fd5b50813567ffffffffffffffff8111156119c1575f80fd5b6020830191508360208285010111156119d8575f80fd5b9250929050565b5f80602083850312156119f0575f80fd5b823567ffffffffffffffff811115611a06575f80fd5b611a128582860161199a565b90969095509350505050565b5f5b83811015611a38578181015183820152602001611a20565b50505f910152565b5f8151808452611a57816020860160208601611a1e565b601f01601f19169290920160200192915050565b60ff60f81b881681525f602060e06020840152611a8b60e084018a611a40565b8381036040850152611a9d818a611a40565b606085018990526001600160a01b038816608086015260a0850187905284810360c0860152855180825260208088019350909101905f5b81811015611af057835183529284019291840191600101611ad4565b50909c9b505050505050505050505050565b5f805f60408486031215611b14575f80fd5b83359250602084013567ffffffffffffffff811115611b31575f80fd5b611b3d8682870161199a565b9497909650939450505050565b602081525f610def6020830184611a40565b5f60208284031215611b6c575f80fd5b81518015158114610e7e575f80fd5b5f60208284031215611b8b575f80fd5b5051919050565b5f60018201611baf57634e487b7160e01b5f52601160045260245ffd5b5060010190565b634e487b7160e01b5f52604160045260245ffd5b5f8351611bdb818460208801611a1e565b6001600160f81b0319939093169190920190815260010192915050565b600181811c90821680611c0c57607f821691505b602082108103611c2a57634e487b7160e01b5f52602260045260245ffd5b50919050565b634e487b7160e01b5f52602160045260245ffd5b5f60208284031215611c54575f80fd5b815167ffffffffffffffff80821115611c6b575f80fd5b818401915084601f830112611c7e575f80fd5b815181811115611c9057611c90611bb6565b604051601f8201601f19908116603f01168101908382118183101715611cb857611cb8611bb6565b81604052828152876020848701011115611cd0575f80fd5b611ce1836020830160208801611a1e565b97965050505050505056fea164736f6c6343000816000aa164736f6c6343000816000a",
  "linkReferences": {},
  "deployedLinkReferences": {}
}