{
  "_format": "hh-sol-artifact-1",
  "contractName": "BlindAuction",
  "sourceName": "contracts/BlindAuction.sol",
  "abi": [
    {
      "inputs": [
        {
          "internalType": "address",
          "name": "_beneficiary",
          "type": "address"
        },
        {
          "internalType": "address",
          "name": "_tokenContract",
          "type": "address"
        },
        {
          "internalType": "uint256",
          "name": "biddingTime",
          "type": "uint256"
        },
        {
          "internalType": "bool",
          "name": "isStoppable",
          "type": "bool"
        },
        {
          "internalType": "address",
          "name": "_feeRecipient",
          "type": "address"
        },
        {
          "internalType": "uint16",
          "name": "_feePercentageBp",
          "type": "uint16"
        },
        {
          "internalType": "address",
          "name": "_activityNFT",
          "type": "address"
        },
        {
          "internalType": "address",
          "name": "_contractOwner",
          "type": "address"
        }
      ],
      "stateMutability": "nonpayable",
      "type": "constructor"
    },
    {
      "inputs": [],
      "name": "ECDSAInvalidSignature",
      "type": "error"
    },
    {
      "inputs": [
        {
          "internalType": "uint256",
          "name": "length",
          "type": "uint256"
        }
      ],
      "name": "ECDSAInvalidSignatureLength",
      "type": "error"
    },
    {
      "inputs": [
        {
          "internalType": "bytes32",
          "name": "s",
          "type": "bytes32"
        }
      ],
      "name": "ECDSAInvalidSignatureS",
      "type": "error"
    },
    {
      "inputs": [],
      "name": "InvalidShortString",
      "type": "error"
    },
    {
      "inputs": [
        {
          "internalType": "string",
          "name": "str",
          "type": "string"
        }
      ],
      "name": "StringTooLong",
      "type": "error"
    },
    {
      "inputs": [
        {
          "internalType": "uint256",
          "name": "time",
          "type": "uint256"
        }
      ],
      "name": "TooEarly",
      "type": "error"
    },
    {
      "inputs": [
        {
          "internalType": "uint256",
          "name": "time",
          "type": "uint256"
        }
      ],
      "name": "TooLate",
      "type": "error"
    },
    {
      "anonymous": false,
      "inputs": [],
      "name": "EIP712DomainChanged",
      "type": "event"
    },
    {
      "inputs": [],
      "name": "activityNFT",
      "outputs": [
        {
          "internalType": "contract ActivityNFT",
          "name": "",
          "type": "address"
        }
      ],
      "stateMutability": "view",
      "type": "function"
    },
    {
      "inputs": [],
      "name": "auctionEnd",
      "outputs": [],
      "stateMutability": "nonpayable",
      "type": "function"
    },
    {
      "inputs": [],
      "name": "beneficiary",
      "outputs": [
        {
          "internalType": "address",
          "name": "",
          "type": "address"
        }
      ],
      "stateMutability": "view",
      "type": "function"
    },
    {
      "inputs": [
        {
          "internalType": "bytes",
          "name": "encryptedValue",
          "type": "bytes"
        }
      ],
      "name": "bid",
      "outputs": [],
      "stateMutability": "nonpayable",
      "type": "function"
    },
    {
      "inputs": [],
      "name": "bidCounter",
      "outputs": [
        {
          "internalType": "uint256",
          "name": "",
          "type": "uint256"
        }
      ],
      "stateMutability": "view",
      "type": "function"
    },
    {
      "inputs": [],
      "name": "claim",
      "outputs": [],
      "stateMutability": "nonpayable",
      "type": "function"
    },
    {
      "inputs": [],
      "name": "contractOwner",
      "outputs": [
        {
          "internalType": "address",
          "name": "",
          "type": "address"
        }
      ],
      "stateMutability": "view",
      "type": "function"
    },
    {
      "inputs": [
        {
          "internalType": "bytes32",
          "name": "publicKey",
          "type": "bytes32"
        },
        {
          "internalType": "bytes",
          "name": "signature",
          "type": "bytes"
        }
      ],
      "name": "doIHaveHighestBid",
      "outputs": [
        {
          "internalType": "bytes",
          "name": "",
          "type": "bytes"
        }
      ],
      "stateMutability": "view",
      "type": "function"
    },
    {
      "inputs": [],
      "name": "eip712Domain",
      "outputs": [
        {
          "internalType": "bytes1",
          "name": "fields",
          "type": "bytes1"
        },
        {
          "internalType": "string",
          "name": "name",
          "type": "string"
        },
        {
          "internalType": "string",
          "name": "version",
          "type": "string"
        },
        {
          "internalType": "uint256",
          "name": "chainId",
          "type": "uint256"
        },
        {
          "internalType": "address",
          "name": "verifyingContract",
          "type": "address"
        },
        {
          "internalType": "bytes32",
          "name": "salt",
          "type": "bytes32"
        },
        {
          "internalType": "uint256[]",
          "name": "extensions",
          "type": "uint256[]"
        }
      ],
      "stateMutability": "view",
      "type": "function"
    },
    {
      "inputs": [],
      "name": "endTime",
      "outputs": [
        {
          "internalType": "uint256",
          "name": "",
          "type": "uint256"
        }
      ],
      "stateMutability": "view",
      "type": "function"
    },
    {
      "inputs": [],
      "name": "feePercentageBp",
      "outputs": [
        {
          "internalType": "euint64",
          "name": "",
          "type": "uint256"
        }
      ],
      "stateMutability": "view",
      "type": "function"
    },
    {
      "inputs": [],
      "name": "feeRecipient",
      "outputs": [
        {
          "internalType": "address",
          "name": "",
          "type": "address"
        }
      ],
      "stateMutability": "view",
      "type": "function"
    },
    {
      "inputs": [
        {
          "internalType": "bytes32",
          "name": "publicKey",
          "type": "bytes32"
        },
        {
          "internalType": "bytes",
          "name": "signature",
          "type": "bytes"
        }
      ],
      "name": "getBid",
      "outputs": [
        {
          "internalType": "bytes",
          "name": "",
          "type": "bytes"
        }
      ],
      "stateMutability": "view",
      "type": "function"
    },
    {
      "inputs": [],
      "name": "manuallyStopped",
      "outputs": [
        {
          "internalType": "bool",
          "name": "",
          "type": "bool"
        }
      ],
      "stateMutability": "view",
      "type": "function"
    },
    {
      "inputs": [],
      "name": "stop",
      "outputs": [],
      "stateMutability": "nonpayable",
      "type": "function"
    },
    {
      "inputs": [],
      "name": "stoppable",
      "outputs": [
        {
          "internalType": "bool",
          "name": "",
          "type": "bool"
        }
      ],
      "stateMutability": "view",
      "type": "function"
    },
    {
      "inputs": [],
      "name": "tokenContract",
      "outputs": [
        {
          "internalType": "contract EncryptedERC20",
          "name": "",
          "type": "address"
        }
      ],
      "stateMutability": "view",
      "type": "function"
    },
    {
      "inputs": [],
      "name": "tokenTransferred",
      "outputs": [
        {
          "internalType": "bool",
          "name": "",
          "type": "bool"
        }
      ],
      "stateMutability": "view",
      "type": "function"
    },
    {
      "inputs": [],
      "name": "withdraw",
      "outputs": [],
      "stateMutability": "nonpayable",
      "type": "function"
    }
  ],
  "bytecode": "0x6101606040526009805462ff0000191690553480156200001d575f80fd5b506040516200239838038062002398833981016040819052620000409162000393565b604080518082018252601381527f417574686f72697a6174696f6e20746f6b656e00000000000000000000000000602080830191909152825180840190935260018352603160f81b908301529062000099825f62000228565b61012052620000aa81600162000228565b61014052815160208084019190912060e052815190820120610100524660a0526200013760e05161010051604080517f8b73c3c69bb8fe3d512ecc4cf759cc79239f7b179b0ffacaa9a75d522b39400f60208201529081019290925260608201524660808201523060a08201525f9060c00160405160208183030381529060405280519060200120905090565b60805250503060c052600380546001600160a01b038a81166001600160a01b03199283161790925560078054928a16929091169190911790556200017c864262000439565b6002556200018a5f62000260565b600855600980545f60065562ff0001600160b81b031916610100871515026301000000600160b81b0319161763010000006001600160a01b038481169190910291909117909155600a80546001600160a01b031916918616919091179055620001f761ffff841662000284565b600b5550600c80546001600160a01b0319166001600160a01b0392909216919091179055506200064d945050505050565b5f60208351101562000247576200023f8362000292565b90506200025a565b81620002548482620004f7565b5060ff90505b92915050565b5f811562000274576200025a6001620002dd565b6200025a5f620002dd565b919050565b5f6200025a826005620002e5565b5f80829050601f81511115620002c8578260405163305a27a960e01b8152600401620002bf9190620005c3565b60405180910390fd5b8051620002d58262000611565b179392505050565b5f6200025a82825b604051631ce2e8d760e31b8152600481018390527fff0000000000000000000000000000000000000000000000000000000000000060f883901b1660248201525f90605d9063e71746b890604401602060405180830381865afa1580156200034f573d5f803e3d5ffd5b505050506040513d601f19601f8201168201806040525081019062000375919062000635565b9392505050565b80516001600160a01b03811681146200027f575f80fd5b5f805f805f805f80610100898b031215620003ac575f80fd5b620003b7896200037c565b9750620003c760208a016200037c565b96506040890151955060608901518015158114620003e3575f80fd5b9450620003f360808a016200037c565b935060a089015161ffff811681146200040a575f80fd5b92506200041a60c08a016200037c565b91506200042a60e08a016200037c565b90509295985092959890939650565b808201808211156200025a57634e487b7160e01b5f52601160045260245ffd5b634e487b7160e01b5f52604160045260245ffd5b600181811c908216806200048257607f821691505b602082108103620004a157634e487b7160e01b5f52602260045260245ffd5b50919050565b601f821115620004f257805f5260205f20601f840160051c81016020851015620004ce5750805b601f840160051c820191505b81811015620004ef575f8155600101620004da565b50505b505050565b81516001600160401b0381111562000513576200051362000459565b6200052b816200052484546200046d565b84620004a7565b602080601f83116001811462000561575f8415620005495750858301515b5f19600386901b1c1916600185901b178555620005bb565b5f85815260208120601f198616915b82811015620005915788860151825594840194600190910190840162000570565b5085821015620005af57878501515f19600388901b60f8161c191681555b505060018460011b0185555b505050505050565b5f602080835283518060208501525f5b81811015620005f157858101830151858201604001528201620005d3565b505f604082860101526040601f19601f8301168501019250505092915050565b80516020808301519190811015620004a1575f1960209190910360031b1b16919050565b5f6020828403121562000646575f80fd5b5051919050565b60805160a05160c05160e051610100516101205161014051611cf96200069f5f395f610f4401525f610f1301525f6115ff01525f6115d701525f61153201525f61155c01525f6115860152611cf95ff3fe608060405234801561000f575f80fd5b5060043610610149575f3560e01c806355a373d6116100c7578063bb4872de1161007d578063c5822c0d11610063578063c5822c0d14610284578063ce606ee014610291578063edfdc41c146102ab575f80fd5b8063bb4872de14610259578063be231a2d1461027b575f80fd5b80639d89899c116100ad5780639d89899c14610213578063b505bf5f14610233578063b9ae1a4314610246575f80fd5b806355a373d6146101e557806384b0196e146101f8575f80fd5b806331e375301161011c5780633ccfd60b116101025780633ccfd60b146101c257806346904840146101ca5780634e71d92d146101dd575f80fd5b806331e375301461018457806338af3eed14610197575f80fd5b806303f693541461014d57806307da68f5146101695780632a24f46c146101735780633197cbb61461017b575b5f80fd5b61015660065481565b6040519081526020015b60405180910390f35b6101716102be565b005b610171610301565b61015660025481565b6101716101923660046119df565b61048b565b6003546101aa906001600160a01b031681565b6040516001600160a01b039091168152602001610160565b6101716108a0565b600a546101aa906001600160a01b031681565b6101716109fb565b6007546101aa906001600160a01b031681565b610200610a97565b6040516101609796959493929190611a6b565b610226610221366004611b02565b610ad9565b6040516101609190611b4a565b610226610241366004611b02565b610c98565b600c546101aa906001600160a01b031681565b60095461026b90610100900460ff1681565b6040519015158152602001610160565b610156600b5481565b60095461026b9060ff1681565b6009546101aa90630100000090046001600160a01b031681565b60095461026b9062010000900460ff1681565b600954630100000090046001600160a01b031633146102db575f80fd5b600954610100900460ff166102ee575f80fd5b6009805462ff0000191662010000179055565b600254421115801561031c575060095462010000900460ff16155b1561034957600254604051630a8d68c960e21b815260040161034091815260200190565b60405180910390fd5b60095460ff1615610358575f80fd5b6009805460ff19166001179055600454600b545f9161037691610dc1565b90506127105f6103868383610df8565b600754600a5460405163a9059cbb60e01b81526001600160a01b03918216600482015260248101849052929350169063a9059cbb906044016020604051808303815f875af11580156103da573d5f803e3d5ffd5b505050506040513d601f19601f820116820180604052508101906103fe9190611b5c565b505f61040c60045483610e1e565b60075460035460405163a9059cbb60e01b81526001600160a01b03918216600482015260248101849052929350169063a9059cbb906044016020604051808303815f875af1158015610460573d5f803e3d5ffd5b505050506040513d601f19601f820116820180604052508101906104849190611b5c565b5050505050565b600254421015806104a9575060095462010000900460ff1615156001145b156104cd5760025460405163348f2b4160e11b815260040161034091815260200190565b5f61050c83838080601f0160208091040260200160405190810160405280939291908181526020018383808284375f92019190915250610e2992505050565b335f9081526005602052604090205490915080156106da5760075460408051630eb2b9c960e01b815290515f926001600160a01b031691630eb2b9c99160048083019260209291908290030181865afa15801561056b573d5f803e3d5ffd5b505050506040513d601f19601f8201168201806040525081019061058f9190611b7b565b90505f61059c8385610e35565b90505f6105a98585610e1e565b90505f6105bf83836105ba5f610e63565b610e6f565b6007546040516323b872dd60e01b8152336004820152306024820152604481018390529192506001600160a01b0316906323b872dd906064016020604051808303815f875af1158015610614573d5f803e3d5ffd5b505050506040513d601f19601f820116820180604052508101906106389190611b5c565b5060075460408051630eb2b9c960e01b815290515f926001600160a01b031691630eb2b9c99160048083019260209291908290030181865afa158015610680573d5f803e3d5ffd5b505050506040513d601f19601f820116820180604052508101906106a49190611b7b565b90505f6106b18287610e1e565b90505f6106be8883610e85565b335f908152600560205260409020555061085e95505050505050565b60068054905f6106e983611b92565b909155505060075460408051630eb2b9c960e01b815290515f926001600160a01b031691630eb2b9c99160048083019260209291908290030181865afa158015610735573d5f803e3d5ffd5b505050506040513d601f19601f820116820180604052508101906107599190611b7b565b6007546040516323b872dd60e01b8152336004820152306024820152604481018690529192506001600160a01b0316906323b872dd906064016020604051808303815f875af11580156107ae573d5f803e3d5ffd5b505050506040513d601f19601f820116820180604052508101906107d29190611b5c565b5060075460408051630eb2b9c960e01b815290515f926001600160a01b031691630eb2b9c99160048083019260209291908290030181865afa15801561081a573d5f803e3d5ffd5b505050506040513d601f19601f8201168201806040525081019061083e9190611b7b565b90505f61084b8284610e1e565b335f908152600560205260409020555050505b335f9081526005602052604090205460045461087e576004819055610484565b61089661088d60045483610e35565b82600454610e6f565b6004555050505050565b60025442111580156108bb575060095462010000900460ff16155b156108df57600254604051630a8d68c960e21b815260040161034091815260200190565b335f908152600560205260408120546004549091906108ff908390610e90565b90505f61091e61091983610914600854610ebe565b610ec8565b610ebe565b6007549091506001600160a01b031663a9059cbb3361094184876105ba5f610e63565b6040517fffffffff0000000000000000000000000000000000000000000000000000000060e085901b1681526001600160a01b03909216600483015260248201526044016020604051808303815f875af11580156109a1573d5f803e3d5ffd5b505050506040513d601f19601f820116820180604052508101906109c59190611b5c565b506109e7816109d35f610e63565b335f90815260056020526040902054610e6f565b335f90815260056020526040902055505050565b6002544211158015610a16575060095462010000900460ff16155b15610a3a57600254604051630a8d68c960e21b815260040161034091815260200190565b600454335f908152600560205260408120549091610a6791610a5c9190610ed3565b610914600854610ebe565b9050610a7581600854610f01565b600855610a85816109d35f610e63565b335f9081526005602052604090205550565b5f6060805f805f6060610aa8610f0c565b610ab0610f3d565b604080515f80825260208201909252600f60f81b9b939a50919850469750309650945092509050565b60606002544211158015610af6575060095462010000900460ff16155b15610b1a57600254604051630a8d68c960e21b815260040161034091815260200190565b8383838080601f0160208091040260200160405190810160405280939291908181526020018383808284375f920182905250604080517f051d137ae0e1fae6e3b6559fed4442b35a85a9a39789838ad5c9ea05e7da2dce6020820152908101879052909350610ba5925060600190505b60405160208183030381529060405280519060200120610f6a565b90505f610bb28284610f96565b90506001600160a01b0381163314610c325760405162461bcd60e51b815260206004820152603160248201527f454950373132207369676e657220616e64207472616e73616374696f6e20736960448201527f676e657220646f206e6f74206d617463680000000000000000000000000000006064820152608401610340565b60045415158015610c505750335f9081526005602052604090205415155b15610c8157600454335f90815260056020526040902054610c7a91610c7491610ed3565b89610fbe565b9450610c8d565b610c7a610c745f610fca565b505050509392505050565b60608383838080601f0160208091040260200160405190810160405280939291908181526020018383808284375f920182905250604080517f051d137ae0e1fae6e3b6559fed4442b35a85a9a39789838ad5c9ea05e7da2dce6020820152908101879052909350610d0e92506060019050610b8a565b90505f610d1b8284610f96565b90506001600160a01b0381163314610d9b5760405162461bcd60e51b815260206004820152603160248201527f454950373132207369676e657220616e64207472616e73616374696f6e20736960448201527f676e657220646f206e6f74206d617463680000000000000000000000000000006064820152608401610340565b335f90815260056020526040812054610db5918a90610fe4565b98975050505050505050565b5f82610dd357610dd05f610e63565b92505b81610de457610de15f610e63565b91505b610def83835f611019565b90505b92915050565b5f82610e0a57610e075f610e63565b92505b610def838367ffffffffffffffff166110af565b5f610def838361112c565b5f610df282600561115a565b5f82610e4757610e445f610e63565b92505b81610e5857610e555f610e63565b91505b610def83835f6111a6565b5f610df28260056111f8565b5f610e7b84848461126d565b90505b9392505050565b5f610def83836112dc565b5f82610ea257610e9f5f610e63565b92505b81610eb357610eb05f610e63565b91505b610def83835f61130a565b5f610df28261135c565b5f610def83836113bd565b5f82610ee557610ee25f610e63565b92505b81610ef657610ef35f610e63565b91505b610def83835f6113f4565b5f610def8383611446565b6060610f387f00000000000000000000000000000000000000000000000000000000000000005f61147d565b905090565b6060610f387f0000000000000000000000000000000000000000000000000000000000000000600161147d565b5f610df2610f76611526565b8360405161190160f01b8152600281019290925260228201526042902090565b5f805f80610fa4868661164f565b925092509250610fb48282611698565b5090949350505050565b6060610def8383611754565b5f8115610fdb57610df260016117bf565b610df25f6117bf565b60608315610ffd57610ff68484611754565b9050610e7e565b610ff66110138367ffffffffffffffff16610e63565b84611754565b5f80821561102c5750600160f81b61102f565b505f5b60405163816d57d360e01b815260048101869052602481018590526001600160f81b031982166044820152605d9063816d57d3906064015b602060405180830381865afa158015611082573d5f803e3d5ffd5b505050506040513d601f19601f820116820180604052508101906110a69190611b7b565b95945050505050565b6040516336cdd31b60e01b81526004810183905260248101829052600160f81b604482018190525f91605d906336cdd31b906064015b602060405180830381865afa158015611100573d5f803e3d5ffd5b505050506040513d601f19601f820116820180604052508101906111249190611b7b565b949350505050565b5f8261113e5761113b5f610e63565b92505b8161114f5761114c5f610e63565b91505b610def83835f6117ca565b5f80838360f81b604051602001611172929190611bca565b60408051601f1981840301815290829052630964a5d960e31b82529150605d90634b252ec8906110e5908490600401611b4a565b5f8082156111b95750600160f81b6111bc565b505f5b604051639675211f60e01b815260048101869052602481018590526001600160f81b031982166044820152605d90639675211f90606401611067565b604051631ce2e8d760e31b8152600481018390526001600160f81b031960f883901b1660248201525f90605d9063e71746b890604401602060405180830381865afa158015611249573d5f803e3d5ffd5b505050506040513d601f19601f82011682018060405250810190610def9190611b7b565b60405163cb3b940760e01b81526004810184905260248101839052604481018290525f90605d9063cb3b940790606401602060405180830381865afa1580156112b8573d5f803e3d5ffd5b505050506040513d601f19601f82011682018060405250810190610e7b9190611b7b565b5f826112ee576112eb5f610e63565b92505b816112ff576112fc5f610e63565b91505b610def83835f61181c565b5f80821561131d5750600160f81b611320565b505f5b604051630d7c62eb60e31b815260048101869052602481018590526001600160f81b031982166044820152605d90636be3175890606401611067565b6040516309c00ffd60e11b8152600481018290525f90605d906313801ffa90602401602060405180830381865afa158015611399573d5f803e3d5ffd5b505050506040513d601f19601f82011682018060405250810190610df29190611b7b565b604051630ccd46b160e31b815260048101839052602481018290525f60448201819052908190605d9063666a3588906064016110e5565b5f8082156114075750600160f81b61140a565b505f5b6040516334a6d7b960e11b815260048101869052602481018590526001600160f81b031982166044820152605d9063694daf7290606401611067565b604051633b1015f760e21b815260048101839052602481018290525f60448201819052908190605d9063ec4057dc906064016110e5565b606060ff8314611497576114908361186e565b9050610df2565b8180546114a390611bf8565b80601f01602080910402602001604051908101604052809291908181526020018280546114cf90611bf8565b801561151a5780601f106114f15761010080835404028352916020019161151a565b820191905f5260205f20905b8154815290600101906020018083116114fd57829003601f168201915b50505050509050610df2565b5f306001600160a01b037f00000000000000000000000000000000000000000000000000000000000000001614801561157e57507f000000000000000000000000000000000000000000000000000000000000000046145b156115a857507f000000000000000000000000000000000000000000000000000000000000000090565b610f38604080517f8b73c3c69bb8fe3d512ecc4cf759cc79239f7b179b0ffacaa9a75d522b39400f60208201527f0000000000000000000000000000000000000000000000000000000000000000918101919091527f000000000000000000000000000000000000000000000000000000000000000060608201524660808201523060a08201525f9060c00160405160208183030381529060405280519060200120905090565b5f805f8351604103611686576020840151604085015160608601515f1a611678888285856118ab565b955095509550505050611691565b505081515f91506002905b9250925092565b5f8260038111156116ab576116ab611c30565b036116b4575050565b60018260038111156116c8576116c8611c30565b036116e65760405163f645eedf60e01b815260040160405180910390fd5b60028260038111156116fa576116fa611c30565b0361171b5760405163fce698f760e01b815260048101829052602401610340565b600382600381111561172f5761172f611c30565b03611750576040516335e2f38360e21b815260048101829052602401610340565b5050565b60405163d6ad57cd60e01b81526004810183905260248101829052606090605d9063d6ad57cd906044015f60405180830381865afa158015611798573d5f803e3d5ffd5b505050506040513d5f823e601f3d908101601f19168201604052610def9190810190611c44565b5f610df2825f6111f8565b5f8082156117dd5750600160f81b6117e0565b505f5b604051638c14cc2160e01b815260048101869052602481018590526001600160f81b031982166044820152605d90638c14cc2190606401611067565b5f80821561182f5750600160f81b611832565b505f5b60405163f953e42760e01b815260048101869052602481018590526001600160f81b031982166044820152605d9063f953e42790606401611067565b60605f61187a83611973565b6040805160208082528183019092529192505f91906020820181803683375050509182525060208101929092525090565b5f80807f7fffffffffffffffffffffffffffffff5d576e7357a4501ddfe92f46681b20a08411156118e457505f91506003905082611969565b604080515f808252602082018084528a905260ff891692820192909252606081018790526080810186905260019060a0016020604051602081039080840390855afa158015611935573d5f803e3d5ffd5b5050604051601f1901519150506001600160a01b03811661196057505f925060019150829050611969565b92505f91508190505b9450945094915050565b5f60ff8216601f811115610df257604051632cd44ac360e21b815260040160405180910390fd5b5f8083601f8401126119aa575f80fd5b50813567ffffffffffffffff8111156119c1575f80fd5b6020830191508360208285010111156119d8575f80fd5b9250929050565b5f80602083850312156119f0575f80fd5b823567ffffffffffffffff811115611a06575f80fd5b611a128582860161199a565b90969095509350505050565b5f5b83811015611a38578181015183820152602001611a20565b50505f910152565b5f8151808452611a57816020860160208601611a1e565b601f01601f19169290920160200192915050565b60ff60f81b881681525f602060e06020840152611a8b60e084018a611a40565b8381036040850152611a9d818a611a40565b606085018990526001600160a01b038816608086015260a0850187905284810360c0860152855180825260208088019350909101905f5b81811015611af057835183529284019291840191600101611ad4565b50909c9b505050505050505050505050565b5f805f60408486031215611b14575f80fd5b83359250602084013567ffffffffffffffff811115611b31575f80fd5b611b3d8682870161199a565b9497909650939450505050565b602081525f610def6020830184611a40565b5f60208284031215611b6c575f80fd5b81518015158114610e7e575f80fd5b5f60208284031215611b8b575f80fd5b5051919050565b5f60018201611baf57634e487b7160e01b5f52601160045260245ffd5b5060010190565b634e487b7160e01b5f52604160045260245ffd5b5f8351611bdb818460208801611a1e565b6001600160f81b0319939093169190920190815260010192915050565b600181811c90821680611c0c57607f821691505b602082108103611c2a57634e487b7160e01b5f52602260045260245ffd5b50919050565b634e487b7160e01b5f52602160045260245ffd5b5f60208284031215611c54575f80fd5b815167ffffffffffffffff80821115611c6b575f80fd5b818401915084601f830112611c7e575f80fd5b815181811115611c9057611c90611bb6565b604051601f8201601f19908116603f01168101908382118183101715611cb857611cb8611bb6565b81604052828152876020848701011115611cd0575f80fd5b611ce1836020830160208801611a1e565b97965050505050505056fea164736f6c6343000816000a",
  "linkReferences": {},
  "deployedLinkReferences": {}
}